{
  "contractName": "userAuthAPI",
  "abi": [
    {
      "inputs": [
        {
          "internalType": "string",
          "name": "userId",
          "type": "string"
        },
        {
          "internalType": "string",
          "name": "password",
          "type": "string"
        }
      ],
      "name": "addUser",
      "outputs": [],
      "stateMutability": "nonpayable",
      "type": "function"
    },
    {
      "inputs": [
        {
          "internalType": "string",
          "name": "userId",
          "type": "string"
        }
      ],
      "name": "checkPassword",
      "outputs": [
        {
          "internalType": "string",
          "name": "",
          "type": "string"
        }
      ],
      "stateMutability": "view",
      "type": "function",
      "constant": true
    }
  ],
  "bytecode": "0x608060405234801561001057600080fd5b506105c0806100206000396000f3fe608060405234801561001057600080fd5b50600436106100365760003560e01c8063079eaf341461003b57806387e16d4d14610057575b600080fd5b6100556004803603810190610050919061036b565b610087565b005b610071600480360381019061006c91906103e3565b6100be565b60405161007e91906104b4565b60405180910390f35b806000836040516100989190610512565b908152602001604051809103902090805190602001906100b992919061016e565b505050565b60606000826040516100d09190610512565b908152602001604051809103902080546100e990610558565b80601f016020809104026020016040519081016040528092919081815260200182805461011590610558565b80156101625780601f1061013757610100808354040283529160200191610162565b820191906000526020600020905b81548152906001019060200180831161014557829003601f168201915b50505050509050919050565b82805461017a90610558565b90600052602060002090601f01602090048101928261019c57600085556101e3565b82601f106101b557805160ff19168380011785556101e3565b828001600101855582156101e3579182015b828111156101e25782518255916020019190600101906101c7565b5b5090506101f091906101f4565b5090565b5b8082111561020d5760008160009055506001016101f5565b5090565b6000604051905090565b600080fd5b600080fd5b600080fd5b600080fd5b6000601f19601f8301169050919050565b7f4e487b7100000000000000000000000000000000000000000000000000000000600052604160045260246000fd5b6102788261022f565b810181811067ffffffffffffffff8211171561029757610296610240565b5b80604052505050565b60006102aa610211565b90506102b6828261026f565b919050565b600067ffffffffffffffff8211156102d6576102d5610240565b5b6102df8261022f565b9050602081019050919050565b82818337600083830152505050565b600061030e610309846102bb565b6102a0565b90508281526020810184848401111561032a5761032961022a565b5b6103358482856102ec565b509392505050565b600082601f83011261035257610351610225565b5b81356103628482602086016102fb565b91505092915050565b600080604083850312156103825761038161021b565b5b600083013567ffffffffffffffff8111156103a05761039f610220565b5b6103ac8582860161033d565b925050602083013567ffffffffffffffff8111156103cd576103cc610220565b5b6103d98582860161033d565b9150509250929050565b6000602082840312156103f9576103f861021b565b5b600082013567ffffffffffffffff81111561041757610416610220565b5b6104238482850161033d565b91505092915050565b600081519050919050565b600082825260208201905092915050565b60005b8381101561046657808201518184015260208101905061044b565b83811115610475576000848401525b50505050565b60006104868261042c565b6104908185610437565b93506104a0818560208601610448565b6104a98161022f565b840191505092915050565b600060208201905081810360008301526104ce818461047b565b905092915050565b600081905092915050565b60006104ec8261042c565b6104f681856104d6565b9350610506818560208601610448565b80840191505092915050565b600061051e82846104e1565b915081905092915050565b7f4e487b7100000000000000000000000000000000000000000000000000000000600052602260045260246000fd5b6000600282049050600182168061057057607f821691505b6020821081141561058457610583610529565b5b5091905056fea26469706673582212206446194939d6010424c327f8e2021cd8813de1a8354216c9aad7571351f9af4664736f6c634300080a0033",
  "immutableReferences": {},
  "source": "// SPDX-License-Identifier: MIT\n\npragma solidity ^0.8.0;\n\ncontract userAuthAPI {\n    mapping (string => string) userMap;    \n    function addUser(string memory userId,string memory password) public {\n        userMap[userId] = password;\n    }\n    function checkPassword(string memory userId) public view returns (string memory){\n        return userMap[userId];\n    } \n}",
  "sourcePath": "/home/pain/Documents/nits-hackathon/userAuth-blockchain-uid/contracts/userAuthAPI.sol",
  "compiler": {
    "name": "solc",
    "version": "0.8.10+commit.fc410830.Emscripten.clang"
  },
  "schemaVersion": "3.4.10",
  "updatedAt": "2022-10-20T12:33:47.226Z",
  "networkType": "ethereum",
  "devdoc": {
    "kind": "dev",
    "methods": {},
    "version": 1
  },
  "userdoc": {
    "kind": "user",
    "methods": {},
    "version": 1
  }
}